:020000040000FA
:04000000FBEF3AF0E8
:1075F1000100000001F10EF66E750EF76E000EF837
:107601006E00EE0CF010EE05F00900F5CFEEFFE58F
:1076110050E150FAE1000EF86E000110EF3BF0006E
:107621000E956E000E8C6E938E939CF19E81BE1C06
:10763100EF3BF01EEF3BF04BEF3BF0820E0A6EDEAC
:107641000EE82EFED70A2EFCD7102A070E1018D8E6
:10765100A42DEF3BF02FEF3BF04BEF3BF0010E1071
:107661006E4BEF3BF072EC3BF017EF3BF054EC3E0E
:10767100F017EF3BF02AEC3CF017EF3BF020EC3F2A
:10768100F017EF3BF0E2EC3CF017EF3BF09BEC3DE9
:10769100F017EF3BF010500A6E0B6A0B50000AD83E
:1076A100B455EF3BF017EF3BF00A50010AD8B43361
:1076B100EF3BF0030AD8B437EF3BF0010AD8B43BF3
:1076C100EF3BF0070AD8B43FEF3BF0010AD8B443CF
:1076D100EF3BF0030AD8B447EF3BF017EF3BF00064
:1076E100EF00F0000E046E000E036E04BE82EF3B4D
:1076F100F0045009E1080E035CD8A082EF3BF0844E
:10770100EF3BF086EF3BF029EF3CF081AE8BEF3B96
:10771100F08DEF3BF029EF3CF003C001F0010E02C8
:107721006E012A96EF3BF0D8900236012E94EF3B82
:10773100F002508C6E0C040D100E100F10D8A4A482
:10774100EF3BF0A6EF3BF0AFEF3BF0820E016EDEB8
:107751000EE82EFED7012EFCD7FDEF3BF0020E0CFA
:10776100180D100E100F10D8A4B9EF3BF0BBEF3B72
:10777100F0C9EF3BF0020E026E040E016EBA0EE884
:107781002EFED7012EFCD7022EFAD700D0FDEF3BFB
:10779100F0030E0C180D100E100F10D8A4D3EF3BF0
:1077A100F0D5EF3BF0E3EF3BF0030E026E080E0164
:1077B1006E770EE82EFED7012EFCD7022EFAD700E7
:1077C100F0FDEF3BF0040E0C180D100E100F10D849
:1077D100A4EDEF3BF0EFEF3BF0FDEF3BF0050E02C8
:1077E1006E0F0E016EF10EE82EFED7012EFCD702B0
:1077F1002EFAD700F0FDEF3BF081BC02EF3CF00424
:10780100EF3CF025EF3CF0820E016EDE0EE82EFE1D
:10781100D7012EFCD7010E0C26000E0D220E220FD1
:1078210022050E0C180D100E100F10D8A41BEF3CE2
:10783100F01DEF3CF025EF3CF0010E0C6E000E0D3B
:107841006E000E0E6E000E0F6E034A042A76EF3B99
:10785100F01200000E046E000E036E04BE3AEF3CFF
:10786100F0045009E1090E035CD8A03AEF3CF03C6A
:10787100EF3CF03EEF3CF0E1EF3CF081AE43EF3CFA
:10788100F045EF3CF0E1EF3CF003C001F0010E02E6
:107891006E012A4EEF3CF0D8900236012E4CEF3C9F
:1078A100F002048C6E0C040D100E100F10D8A45CA5
:1078B100EF3CF05EEF3CF067EF3CF0820E016EDED4
:1078C1000EE82EFED7012EFCD7B5EF3CF0020E0CD0
:1078D100180D100E100F10D8A471EF3CF073EF3C8F
:1078E100F081EF3CF0020E026E040E016EBA0EE85A
:1078F1002EFED7012EFCD7022EFAD700D0B5EF3CD1
:10790100F0030E0C180D100E100F10D8A48BEF3CC5
:10791100F08DEF3CF09BEF3CF0030E026E080E0180
:107921006E770EE82EFED7012EFCD7022EFAD70075
:10793100F0B5EF3CF0040E0C180D100E100F10D81E
:10794100A4A5EF3CF0A7EF3CF0B5EF3CF0050E022B
:107951006E0F0E016EF10EE82EFED7012EFCD7023E
:107961002EFAD700F0B5EF3CF081BCBAEF3CF0BC89
:10797100EF3CF0DDEF3CF0820E016EDE0EE82EFEF4
:10798100D7012EFCD7010E0C26000E0D220E220F60
:1079910022050E0C180D100E100F10D8A4D3EF3CB9
:1079A100F0D5EF3CF0DDEF3CF0010E0C6E000E0D5A
:1079B1006E000E0E6E000E0F6E034A042A2EEF3C6F
:1079C100F01200000E046E000E036E04BEF2EF3CD6
:1079D100F0045009E1090E035CD8A0F2EF3CF0F489
:1079E100EF3CF0F6EF3CF09AEF3DF081AEFBEF3C5F
:1079F100F0FDEF3CF09AEF3DF003C001F0010E0203
:107A01006E012A06EF3DF0D8900236012E04EF3DBB
:107A1100F00250020F8C6E0C040D100E100F10D8D6
:107A2100A415EF3DF017EF3DF020EF3DF0820E0180
:107A31006EDE0EE82EFED7012EFCD76EEF3DF00272
:107A41000E0C180D100E100F10D8A42AEF3DF02CBB
:107A5100EF3DF03AEF3DF0020E026E040E016EBAF8
:107A61000EE82EFED7012EFCD7022EFAD700D06EDB
:107A7100EF3DF0030E0C180D100E100F10D8A4449A
:107A8100EF3DF046EF3DF054EF3DF0030E026E087E
:107A91000E016E770EE82EFED7012EFCD7022EFACC
:107AA100D700F06EEF3DF0040E0C180D100E100F04
:107AB10010D8A45EEF3DF060EF3DF06EEF3DF005B4
:107AC1000E026E0F0E016EF10EE82EFED7012EFC96
:107AD100D7022EFAD700F06EEF3DF081BC73EF3D77
:107AE100F075EF3DF096EF3DF0820E016EDE0EE88F
:107AF1002EFED7012EFCD7010E0C26000E0D220EF4
:107B0100220F22050E0C180D100E100F10D8A48C88
:107B1100EF3DF08EEF3DF096EF3DF0010E0C6E0063
:107B21000E0D6E000E0E6E000E0F6E034A042AE655
:107B3100EF3CF01200000E046E000E036E04BEABAB
:107B4100EF3DF0045009E1090E035CD8A0ABEF3D15
:107B5100F0ADEF3DF0AFEF3DF053EF3EF081AEB44D
:107B6100EF3DF0B6EF3DF053EF3EF003C001F00101
:107B71000E026E012ABFEF3DF0D8900236012EBDF4
:107B8100EF3DF00250FE0F8C6E0C040D100E100F25
:107B910010D8A4CEEF3DF0D0EF3DF0D9EF3DF0820B
:107BA1000E016EDE0EE82EFED7012EFCD727EF3E2A
:107BB100F0020E0C180D100E100F10D8A4E3EF3DBB
:107BC100F0E5EF3DF0F3EF3DF0020E026E040E0121
:107BD1006EBA0EE82EFED7012EFCD7022EFAD70080
:107BE100D027EF3EF0030E0C180D100E100F10D819
:107BF100A4FDEF3DF0FFEF3DF00DEF3EF0030E026F
:107C01006E080E016E770EE82EFED7012EFCD7020C
:107C11002EFAD700F027EF3EF0040E0C180D100ECF
:107C2100100F10D8A417EF3EF019EF3EF027EF3EEA
:107C3100F0050E026E0F0E016EF10EE82EFED70159
:107C41002EFCD7022EFAD700F027EF3EF081BC2C94
:107C5100EF3EF02EEF3EF04FEF3EF0820E016EDE72
:107C61000EE82EFED7012EFCD7010E0C26000E0DBC
:107C7100220E220F22050E0C180D100E100F10D817
:107C8100A445EF3EF047EF3EF04FEF3EF0010E0C02
:107C91006E000E0D6E000E0E6E000E0F6E034A0486
:107CA1002A9FEF3DF01200000E086E000E076E00D5
:107CB1000E066E070E056E08BE68EF3EF00850090D
:107CC100E1080E075CD8A068EF3EF06AEF3EF06C69
:107CD100EF3EF01FEF3FF081AE71EF3EF073EF3EEC
:107CE100F01FEF3FF005C001F0010E026E012A7C8A
:107CF100EF3EF0D8900236012E7AEF3EF007C00336
:107D0100F0010E046E032A88EF3EF0D8900436038A
:107D11002E86EF3EF0045002248C6E0C040D100EE2
:107D2100100F10D8A497EF3EF099EF3EF0A2EF3E6E
:107D3100F0820E016EDE0EE82EFED7012EFCD7F08A
:107D4100EF3EF0020E0C180D100E100F10D8A4AC5F
:107D5100EF3EF0AEEF3EF0BCEF3EF0020E026E04DD
:107D61000E016EBA0EE82EFED7012EFCD7022EFAB6
:107D7100D700D0F0EF3EF0030E0C180D100E100FCF
:107D810010D8A4C6EF3EF0C8EF3EF0D6EF3EF003A8
:107D91000E026E080E016E770EE82EFED7012EFC44
:107DA100D7022EFAD700F0F0EF3EF0040E0C180DBA
:107DB100100E100F10D8A4E0EF3EF0E2EF3EF0F00D
:107DC100EF3EF0050E026E0F0E016EF10EE82EFE73
:107DD100D7012EFCD7022EFAD700F0F0EF3EF0814A
:107DE100BCF5EF3EF0F7EF3EF018EF3FF0820E01E9
:107DF1006EDE0EE82EFED7012EFCD7010E0C2600FA
:107E01000E0D220E220F22050E0C180D100E100F52
:107E110010D8A40EEF3FF010EF3FF018EF3FF00144
:107E21000E0C6E000E0D6E000E0E6E000E0F6E0724
:107E31004A082A0506D8A006065CEF3EF0120000AB
:107E41000E076E000E066E000E096E000E086E0023
:107E51000E056E000E046E81AE31EF3FF033EF3F41
:107E6100F0FFEF3FF0065008248C6E04C001F001D2
:107E71000E026E000E036E012A42EF3FF0D890020F
:107E8100360336012E3FEF3FF00F0E0216000E03B0
:107E910016025006260350072204500708016E01FE
:107EA1000E026E000E036E012A5AEF3FF0D89002C7
:107EB100360336012E57EF3FF0F00E0216000E0387
:107EC1001602500826035009220C040D100E100F43
:107ED10010D8A46EEF3FF070EF3FF079EF3FF082E2
:107EE1000E016EDE0EE82EFED7012EFCD7C7EF3F46
:107EF100F0020E0C180D100E100F10D8A483EF3FD6
:107F0100F085EF3FF093EF3FF0020E026E040E0199
:107F11006EBA0EE82EFED7012EFCD7022EFAD7003C
:107F2100D0C7EF3FF0030E0C180D100E100F10D834
:107F3100A49DEF3FF09FEF3FF0ADEF3FF0030E0246
:107F41006E080E016E770EE82EFED7012EFCD702C9
:107F51002EFAD700F0C7EF3FF0040E0C180D100EEB
:107F6100100F10D8A4B7EF3FF0B9EF3FF0C7EF3FC4
:107F7100F0050E026E0F0E016EF10EE82EFED70116
:107F81002EFCD7022EFAD700F0C7EF3FF081BCCC10
:107F9100EF3FF0CEEF3FF0EFEF3FF0820E016EDEEC
:107FA1000EE82EFED7012EFCD7010E0C26000E0D79
:107FB100220E220F22050E0C180D100E100F10D8D4
:107FC100A4E5EF3FF0E7EF3FF0EFEF3FF0010E0CDC
:107FD1006E000E0D6E000E0E6E000E0F6E044A0541
:107FE1002A05BEFDEF3FF0055009E1050E045CD8FE
:0F7FF100A0FDEF3FF0FFEF3FF02CEF3FF012004D
:020000040020DA
:08000000FFFFFFFFFFFFFFFF00
:020000040030CA
:0E00000000091F1EFF8181FF0FC00FE00F409F
:00000001FF
